{
  "contractName": "LiquidityValueCalculator",
  "abi": [
    {
      "inputs": [
        {
          "internalType": "address",
          "name": "factory_",
          "type": "address"
        }
      ],
      "stateMutability": "nonpayable",
      "type": "constructor"
    },
    {
      "inputs": [],
      "name": "factory",
      "outputs": [
        {
          "internalType": "address",
          "name": "",
          "type": "address"
        }
      ],
      "stateMutability": "view",
      "type": "function"
    },
    {
      "inputs": [
        {
          "internalType": "uint256",
          "name": "liquidity",
          "type": "uint256"
        },
        {
          "internalType": "address",
          "name": "tokenA",
          "type": "address"
        },
        {
          "internalType": "address",
          "name": "tokenB",
          "type": "address"
        }
      ],
      "name": "computeLiquidityShareValue",
      "outputs": [
        {
          "internalType": "uint256",
          "name": "tokenAAmount",
          "type": "uint256"
        },
        {
          "internalType": "uint256",
          "name": "tokenBAmount",
          "type": "uint256"
        }
      ],
      "stateMutability": "nonpayable",
      "type": "function"
    }
  ],
  "bytecode": "0x608060405234801561001057600080fd5b506040516101883803806101888339818101604052602081101561003357600080fd5b5051600080546001600160a01b039092166001600160a01b0319909216919091179055610123806100656000396000f3fe6080604052348015600f57600080fd5b506004361060325760003560e01c80634ef0c6cc146037578063c45a0155146081575b600080fd5b606860048036036060811015604b57600080fd5b508035906001600160a01b036020820135811691604001351660a3565b6040805192835260208301919091528051918290030190f35b608760de565b604080516001600160a01b039092168252519081900360200190f35b6040805162461bcd60e51b81526020600480830191909152602482015263544f444f60e01b6044820152905160009182919081900360640190fd5b6000546001600160a01b03168156fea2646970667358221220c941c67187e8a0f6127461f811621901129b75b7581552bdecffeb1d3c9b085164736f6c63430006060033",
  "immutableReferences": {},
  "source": "pragma solidity >=0.6.6;\r\n\r\nimport './interfaces/ILiquidityValueCalculator.sol';\r\nimport './OneTronicLibrary.sol';\r\nimport './interfaces/IOneTronicPair.sol';\r\n\r\ncontract LiquidityValueCalculator is ILiquidityValueCalculator {\r\n    address public factory;\r\n    constructor(address factory_) public {\r\n        factory = factory_;\r\n    }\r\n\r\n    function pairInfo(address tokenA, address tokenB) internal view returns (uint reserveA, uint reserveB, uint totalSupply) {\r\n        IOneTronicPair pair = IOneTronicPair(OneTronicLibrary.pairFor(factory, tokenA, tokenB));\r\n        totalSupply = pair.totalSupply();\r\n        (uint reserves0, uint reserves1,) = pair.getReserves();\r\n        (reserveA, reserveB) = tokenA == pair.token0() ? (reserves0, reserves1) : (reserves1, reserves0);\r\n    }\r\n\r\n    function computeLiquidityShareValue(uint liquidity, address tokenA, address tokenB) external override returns (uint tokenAAmount, uint tokenBAmount) {\r\n        revert('TODO');\r\n    }\r\n}",
  "sourcePath": "C:/contracts/contracts/LiquidityValueCalculator.sol",
  "compiler": {
    "name": "solc",
    "version": "0.6.6+commit.6c089d02.Emscripten.clang"
  },
  "schemaVersion": "3.4.1",
  "updatedAt": "2021-08-10T08:04:06.105Z",
  "devdoc": {
    "methods": {}
  },
  "userdoc": {
    "methods": {}
  }
}